{
  "_format": "hh3-artifact-1",
  "contractName": "ContributionTracker",
  "sourceName": "contracts/ContributionTracker.sol",
  "abi": [
    {
      "anonymous": false,
      "inputs": [
        {
          "indexed": false,
          "internalType": "uint256",
          "name": "contribId",
          "type": "uint256"
        },
        {
          "indexed": false,
          "internalType": "address",
          "name": "contributor",
          "type": "address"
        },
        {
          "indexed": false,
          "internalType": "uint256",
          "name": "points",
          "type": "uint256"
        }
      ],
      "name": "ContributionSubmitted",
      "type": "event"
    },
    {
      "anonymous": false,
      "inputs": [
        {
          "indexed": false,
          "internalType": "uint256",
          "name": "disputeId",
          "type": "uint256"
        },
        {
          "indexed": false,
          "internalType": "uint256",
          "name": "contribId",
          "type": "uint256"
        },
        {
          "indexed": false,
          "internalType": "address",
          "name": "raisedBy",
          "type": "address"
        }
      ],
      "name": "DisputeRaised",
      "type": "event"
    },
    {
      "anonymous": false,
      "inputs": [
        {
          "indexed": false,
          "internalType": "uint256",
          "name": "disputeId",
          "type": "uint256"
        },
        {
          "indexed": false,
          "internalType": "bool",
          "name": "contributionKept",
          "type": "bool"
        }
      ],
      "name": "DisputeResolved",
      "type": "event"
    },
    {
      "anonymous": false,
      "inputs": [
        {
          "indexed": false,
          "internalType": "uint256",
          "name": "projectId",
          "type": "uint256"
        },
        {
          "indexed": false,
          "internalType": "string",
          "name": "name",
          "type": "string"
        },
        {
          "indexed": false,
          "internalType": "address",
          "name": "admin",
          "type": "address"
        }
      ],
      "name": "ProjectCreated",
      "type": "event"
    },
    {
      "anonymous": false,
      "inputs": [
        {
          "indexed": false,
          "internalType": "uint256",
          "name": "projectId",
          "type": "uint256"
        },
        {
          "indexed": false,
          "internalType": "address",
          "name": "member",
          "type": "address"
        },
        {
          "indexed": false,
          "internalType": "uint256",
          "name": "newScore",
          "type": "uint256"
        }
      ],
      "name": "ScoreUpdated",
      "type": "event"
    },
    {
      "inputs": [
        {
          "internalType": "uint256",
          "name": "projectId",
          "type": "uint256"
        },
        {
          "internalType": "address",
          "name": "newMember",
          "type": "address"
        }
      ],
      "name": "addMember",
      "outputs": [],
      "stateMutability": "nonpayable",
      "type": "function"
    },
    {
      "inputs": [
        {
          "internalType": "uint256",
          "name": "projectId",
          "type": "uint256"
        }
      ],
      "name": "closeProject",
      "outputs": [],
      "stateMutability": "nonpayable",
      "type": "function"
    },
    {
      "inputs": [],
      "name": "contributionCount",
      "outputs": [
        {
          "internalType": "uint256",
          "name": "",
          "type": "uint256"
        }
      ],
      "stateMutability": "view",
      "type": "function"
    },
    {
      "inputs": [
        {
          "internalType": "uint256",
          "name": "",
          "type": "uint256"
        }
      ],
      "name": "contributionPoints",
      "outputs": [
        {
          "internalType": "uint8",
          "name": "",
          "type": "uint8"
        }
      ],
      "stateMutability": "view",
      "type": "function"
    },
    {
      "inputs": [
        {
          "internalType": "uint256",
          "name": "",
          "type": "uint256"
        }
      ],
      "name": "contributions",
      "outputs": [
        {
          "internalType": "uint256",
          "name": "id",
          "type": "uint256"
        },
        {
          "internalType": "uint256",
          "name": "projectId",
          "type": "uint256"
        },
        {
          "internalType": "address",
          "name": "contributor",
          "type": "address"
        },
        {
          "internalType": "string",
          "name": "taskTitle",
          "type": "string"
        },
        {
          "internalType": "uint8",
          "name": "contribType",
          "type": "uint8"
        },
        {
          "internalType": "string",
          "name": "ipfsCID",
          "type": "string"
        },
        {
          "internalType": "bytes32",
          "name": "fileHash",
          "type": "bytes32"
        },
        {
          "internalType": "uint256",
          "name": "timestamp",
          "type": "uint256"
        },
        {
          "internalType": "uint256",
          "name": "points",
          "type": "uint256"
        },
        {
          "internalType": "bool",
          "name": "disputed",
          "type": "bool"
        }
      ],
      "stateMutability": "view",
      "type": "function"
    },
    {
      "inputs": [
        {
          "internalType": "string",
          "name": "name",
          "type": "string"
        },
        {
          "internalType": "address[]",
          "name": "members",
          "type": "address[]"
        }
      ],
      "name": "createProject",
      "outputs": [],
      "stateMutability": "nonpayable",
      "type": "function"
    },
    {
      "inputs": [],
      "name": "disputeCount",
      "outputs": [
        {
          "internalType": "uint256",
          "name": "",
          "type": "uint256"
        }
      ],
      "stateMutability": "view",
      "type": "function"
    },
    {
      "inputs": [
        {
          "internalType": "uint256",
          "name": "",
          "type": "uint256"
        }
      ],
      "name": "disputes",
      "outputs": [
        {
          "internalType": "uint256",
          "name": "contribId",
          "type": "uint256"
        },
        {
          "internalType": "address",
          "name": "raisedBy",
          "type": "address"
        },
        {
          "internalType": "string",
          "name": "reason",
          "type": "string"
        },
        {
          "internalType": "uint256",
          "name": "votesFor",
          "type": "uint256"
        },
        {
          "internalType": "uint256",
          "name": "votesAgainst",
          "type": "uint256"
        },
        {
          "internalType": "bool",
          "name": "resolved",
          "type": "bool"
        }
      ],
      "stateMutability": "view",
      "type": "function"
    },
    {
      "inputs": [
        {
          "internalType": "bytes32",
          "name": "",
          "type": "bytes32"
        }
      ],
      "name": "fileHashToContribId",
      "outputs": [
        {
          "internalType": "uint256",
          "name": "",
          "type": "uint256"
        }
      ],
      "stateMutability": "view",
      "type": "function"
    },
    {
      "inputs": [
        {
          "internalType": "uint256",
          "name": "projectId",
          "type": "uint256"
        }
      ],
      "name": "getLeaderboard",
      "outputs": [
        {
          "internalType": "address[]",
          "name": "",
          "type": "address[]"
        },
        {
          "internalType": "uint256[]",
          "name": "",
          "type": "uint256[]"
        }
      ],
      "stateMutability": "view",
      "type": "function"
    },
    {
      "inputs": [
        {
          "internalType": "uint256",
          "name": "",
          "type": "uint256"
        },
        {
          "internalType": "address",
          "name": "",
          "type": "address"
        }
      ],
      "name": "memberScores",
      "outputs": [
        {
          "internalType": "uint256",
          "name": "",
          "type": "uint256"
        }
      ],
      "stateMutability": "view",
      "type": "function"
    },
    {
      "inputs": [],
      "name": "projectCount",
      "outputs": [
        {
          "internalType": "uint256",
          "name": "",
          "type": "uint256"
        }
      ],
      "stateMutability": "view",
      "type": "function"
    },
    {
      "inputs": [
        {
          "internalType": "uint256",
          "name": "",
          "type": "uint256"
        }
      ],
      "name": "projects",
      "outputs": [
        {
          "internalType": "uint256",
          "name": "id",
          "type": "uint256"
        },
        {
          "internalType": "string",
          "name": "name",
          "type": "string"
        },
        {
          "internalType": "address",
          "name": "admin",
          "type": "address"
        },
        {
          "internalType": "bool",
          "name": "isActive",
          "type": "bool"
        }
      ],
      "stateMutability": "view",
      "type": "function"
    },
    {
      "inputs": [
        {
          "internalType": "uint256",
          "name": "contributionId",
          "type": "uint256"
        },
        {
          "internalType": "string",
          "name": "reason",
          "type": "string"
        }
      ],
      "name": "raiseDispute",
      "outputs": [],
      "stateMutability": "nonpayable",
      "type": "function"
    },
    {
      "inputs": [
        {
          "internalType": "uint256",
          "name": "projectId",
          "type": "uint256"
        },
        {
          "internalType": "address",
          "name": "member",
          "type": "address"
        }
      ],
      "name": "removeMember",
      "outputs": [],
      "stateMutability": "nonpayable",
      "type": "function"
    },
    {
      "inputs": [
        {
          "internalType": "uint256",
          "name": "projectId",
          "type": "uint256"
        },
        {
          "internalType": "string",
          "name": "taskTitle",
          "type": "string"
        },
        {
          "internalType": "uint8",
          "name": "contribType",
          "type": "uint8"
        },
        {
          "internalType": "string",
          "name": "ipfsCID",
          "type": "string"
        },
        {
          "internalType": "bytes32",
          "name": "fileHash",
          "type": "bytes32"
        }
      ],
      "name": "submitContribution",
      "outputs": [],
      "stateMutability": "nonpayable",
      "type": "function"
    },
    {
      "inputs": [
        {
          "internalType": "bytes32",
          "name": "fileHash",
          "type": "bytes32"
        }
      ],
      "name": "verifyFile",
      "outputs": [
        {
          "internalType": "bool",
          "name": "",
          "type": "bool"
        },
        {
          "internalType": "uint256",
          "name": "",
          "type": "uint256"
        }
      ],
      "stateMutability": "view",
      "type": "function"
    },
    {
      "inputs": [
        {
          "internalType": "uint256",
          "name": "disputeId",
          "type": "uint256"
        },
        {
          "internalType": "bool",
          "name": "keepContribution",
          "type": "bool"
        }
      ],
      "name": "voteOnDispute",
      "outputs": [],
      "stateMutability": "nonpayable",
      "type": "function"
    }
  ],
  "bytecode": "0x61014060405260056080908152600460a052600360c081905260e05260026101008190526101205260339060089060066043565b50348015603e575f5ffd5b5060de565b60018301918390821560be579160200282015f5b83821115609257835183826101000a81548160ff021916908360ff16021790555092602001926001016020815f010492830192600103026057565b801560bc5782816101000a81549060ff02191690556001016020815f010492830192600103026092565b505b5060c892915060cc565b5090565b5b8082111560c8575f815560010160cd565b612114806100eb5f395ff3fe608060405234801561000f575f5ffd5b5060043610610111575f3560e01c806374d0a6761161009e578063a34b46fe1161006e578063a34b46fe1461027e578063a4f5df121461029f578063d15bdb0e146102b2578063d478e9f1146102d1578063e80a4008146102e4575f5ffd5b806374d0a676146102255780637f622baa1461023857806393dc12e614610262578063a28889e114610275575f5ffd5b806351a573bf116100e457806351a573bf146101aa578063564a565d146101cf5780635aef573c146101f45780635b18056b146102095780636be7658b14610212575f5ffd5b8063107046bd146101155780631cee07001461014157806336fbad261461016a5780634b67d54b14610180575b5f5ffd5b6101286101233660046119d8565b6102f7565b6040516101389493929190611a1d565b60405180910390f35b61015461014f3660046119d8565b6103b5565b6040516101389a99989796959493929190611a56565b6101725f5481565b604051908152602001610138565b61019361018e3660046119d8565b610526565b604080519215158352602083019190915201610138565b6101bd6101b83660046119d8565b610553565b60405160ff9091168152602001610138565b6101e26101dd3660046119d8565b61057c565b60405161013896959493929190611acd565b610207610202366004611bc7565b610645565b005b61017260015481565b610207610220366004611c26565b610989565b610207610233366004611c26565b610be4565b610172610246366004611c26565b600660209081525f928352604080842090915290825290205481565b6102076102703660046119d8565b610d7d565b61017260025481565b61029161028c3660046119d8565b610e57565b604051610138929190611c50565b6102076102ad366004611cd9565b610fae565b6101726102c03660046119d8565b60076020525f908152604090205481565b6102076102df366004611d0b565b61132c565b6102076102f2366004611de7565b611444565b60036020525f90815260409020805460018201805491929161031890611e73565b80601f016020809104026020016040519081016040528092919081815260200182805461034490611e73565b801561038f5780601f106103665761010080835404028352916020019161038f565b820191905f5260205f20905b81548152906001019060200180831161037257829003601f168201915b505050600290930154919250506001600160a01b0381169060ff600160a01b9091041684565b60046020525f90815260409020805460018201546002830154600384018054939492936001600160a01b0390921692916103ee90611e73565b80601f016020809104026020016040519081016040528092919081815260200182805461041a90611e73565b80156104655780601f1061043c57610100808354040283529160200191610465565b820191905f5260205f20905b81548152906001019060200180831161044857829003601f168201915b5050506004840154600585018054949560ff90921694919350915061048990611e73565b80601f01602080910402602001604051908101604052809291908181526020018280546104b590611e73565b80156105005780601f106104d757610100808354040283529160200191610500565b820191905f5260205f20905b8154815290600101906020018083116104e357829003601f168201915b505050506006830154600784015460088501546009909501549394919390925060ff168a565b5f81815260076020526040812054819080820361054857505f93849350915050565b600194909350915050565b60088160068110610562575f80fd5b60209182820401919006915054906101000a900460ff1681565b60056020525f908152604090208054600182015460028301805492936001600160a01b03909216926105ad90611e73565b80601f01602080910402602001604051908101604052809291908181526020018280546105d990611e73565b80156106245780601f106105fb57610100808354040283529160200191610624565b820191905f5260205f20905b81548152906001019060200180831161060757829003601f168201915b50505050600383015460048401546005909401549293909290915060ff1686565b5f828152600460205260408120600101549054811061067f5760405162461bcd60e51b815260040161067690611eab565b60405180910390fd5b5f8381526004602052604081206001015490805b5f83815260036020819052604090912001548110156106fc575f838152600360208190526040909120018054339190839081106106d2576106d2611edb565b5f918252602090912001546001600160a01b0316036106f457600191506106fc565b600101610693565b508061074a5760405162461bcd60e51b815260206004820181905260248201527f4f6e6c792070726f6a656374206d656d626572732063616e20646f20746869736044820152606401610676565b600154851061079b5760405162461bcd60e51b815260206004820152601b60248201527f436f6e747269627574696f6e20646f6573206e6f7420657869737400000000006044820152606401610676565b5f8581526004602052604090206009015460ff16156107ef5760405162461bcd60e51b815260206004820152601060248201526f105b1c9958591e48191a5cdc1d5d195960821b6044820152606401610676565b5f85815260046020526040902060020154336001600160a01b03909116036108655760405162461bcd60e51b8152602060048201526024808201527f43616e6e6f74206469737075746520796f7572206f776e20636f6e74726962756044820152633a34b7b760e11b6064820152608401610676565b5f8581526004602090815260408083206001908101546002805480875260059095529290942089815590810180546001600160a01b03191633179055016108ac8782611f38565b505f8181526005602081815260408084206003810185905560048082018690559301805460ff199081169091558b85529282528084206009810180549094166001179093556008830154868552600683528185206002909401546001600160a01b03168552929091528220805491929091610928908490612007565b909155505060028054905f61093c83612020565b90915550506040805182815260208101899052338183015290517f83201991c75b30e493678d0543bdbd02d6a194a5a0dda31490a5fe09e9f0a2209181900360600190a150505050505050565b815f5481106109aa5760405162461bcd60e51b815260040161067690611eab565b5f8381526003602052604090206002015483906001600160a01b031633146109e45760405162461bcd60e51b815260040161067690612038565b6001600160a01b038316610a335760405162461bcd60e51b8152602060048201526016602482015275496e76616c6964206d656d626572206164647265737360501b6044820152606401610676565b5f84815260036020819052604082200154905b5f8681526003602081905260409091200154811015610ab757846001600160a01b031660035f8881526020019081526020015f206003018281548110610a8e57610a8e611edb565b5f918252602090912001546001600160a01b031603610aaf57809150610ab7565b600101610a46565b505f85815260036020819052604090912001548110610b0b5760405162461bcd60e51b815260206004820152601060248201526f13595b58995c881b9bdd08199bdd5b9960821b6044820152606401610676565b5f858152600360208190526040909120018054610b2a90600190612007565b81548110610b3a57610b3a611edb565b5f91825260208083209091015487835260039182905260409092200180546001600160a01b039092169183908110610b7457610b74611edb565b5f91825260208083209190910180546001600160a01b0319166001600160a01b0394909416939093179092558681526003918290526040902001805480610bbd57610bbd612068565b5f8281526020902081015f1990810180546001600160a01b03191690550190555050505050565b815f548110610c055760405162461bcd60e51b815260040161067690611eab565b5f8381526003602052604090206002015483906001600160a01b03163314610c3f5760405162461bcd60e51b815260040161067690612038565b6001600160a01b038316610c8e5760405162461bcd60e51b8152602060048201526016602482015275496e76616c6964206d656d626572206164647265737360501b6044820152606401610676565b5f5b5f8581526003602081905260409091200154811015610d3957836001600160a01b031660035f8781526020019081526020015f206003018281548110610cd857610cd8611edb565b5f918252602090912001546001600160a01b031603610d315760405162461bcd60e51b81526020600482015260156024820152744d656d62657220616c72656164792065786973747360581b6044820152606401610676565b600101610c90565b5050505f91825260036020818152604084209091018054600181018255908452922090910180546001600160a01b0319166001600160a01b03909216919091179055565b805f548110610d9e5760405162461bcd60e51b815260040161067690611eab565b5f8281526003602052604090206002015482906001600160a01b03163314610dd85760405162461bcd60e51b815260040161067690612038565b5f83815260036020526040902060020154600160a01b900460ff16610e385760405162461bcd60e51b8152602060048201526016602482015275141c9bda9958dd08185b1c9958591e4818db1bdcd95960521b6044820152606401610676565b50505f908152600360205260409020600201805460ff60a01b19169055565b606080825f548110610e7b5760405162461bcd60e51b815260040161067690611eab565b5f84815260036020818152604080842090920180548351818402810184019094528084529091830182828015610ed857602002820191905f5260205f20905b81546001600160a01b03168152600190910190602001808311610eba575b505050505090505f815167ffffffffffffffff811115610efa57610efa611b16565b604051908082528060200260200182016040528015610f23578160200160208202803683370190505b5090505f5b8251811015610fa25760065f8881526020019081526020015f205f848381518110610f5557610f55611edb565b60200260200101516001600160a01b03166001600160a01b031681526020019081526020015f2054828281518110610f8f57610f8f611edb565b6020908102919091010152600101610f28565b50909350915050915091565b6002548210610ff85760405162461bcd60e51b8152602060048201526016602482015275111a5cdc1d5d1948191bd95cc81b9bdd08195e1a5cdd60521b6044820152606401610676565b5f828152600560208190526040909120015460ff161561105a5760405162461bcd60e51b815260206004820152601860248201527f4469737075746520616c7265616479207265736f6c76656400000000000000006044820152606401610676565b5f82815260056020908152604080832033845260060190915290205460ff16156110b65760405162461bcd60e51b815260206004820152600d60248201526c105b1c9958591e481d9bdd1959609a1b6044820152606401610676565b5f82815260056020526040902060010154336001600160a01b03909116036111205760405162461bcd60e51b815260206004820152601a60248201527f44697370757465207261697365722063616e6e6f7420766f74650000000000006044820152606401610676565b5f8281526005602090815260408083205480845260049092529091206001810154600290910154336001600160a01b03909116036111af5760405162461bcd60e51b815260206004820152602660248201527f436f6e7472696275746f722063616e6e6f7420766f7465206f6e206f776e206460448201526569737075746560d01b6064820152608401610676565b5f805b5f838152600360208190526040909120015481101561121b575f838152600360208190526040909120018054339190839081106111f1576111f1611edb565b5f918252602090912001546001600160a01b031603611213576001915061121b565b6001016111b2565b50806112615760405162461bcd60e51b81526020600482015260156024820152744f6e6c79206d656d626572732063616e20766f746560581b6044820152606401610676565b5f8581526005602090815260408083203384526006019091529020805460ff1916600117905583156112b3575f8581526005602052604081206003018054916112a983612020565b91905055506112d5565b5f8581526005602052604081206004018054916112cf83612020565b91905055505b5f8281526003602081815260408084208301548985526005909252832060048101549201549092916113069161207c565b905061131360028361208f565b81111561132357611323876117e5565b50505050505050565b5f80548082526003602052604090912081815560010161134c8482611f38565b505f818152600360205260408120600201805460ff60a01b1933166001600160a81b031990911617600160a01b1790555b82518110156113f05760035f8381526020019081526020015f206003018382815181106113ac576113ac611edb565b6020908102919091018101518254600180820185555f9485529290932090920180546001600160a01b0319166001600160a01b03909316929092179091550161137d565b505f805490806113ff83612020565b91905055507fc0c54fed07481d0998e1446b2c13759606bf4f26b78306307413ac4c4309aa82818433604051611437939291906120ae565b60405180910390a1505050565b845f5481106114655760405162461bcd60e51b815260040161067690611eab565b855f805b5f83815260036020819052604090912001548110156114d2575f838152600360208190526040909120018054339190839081106114a8576114a8611edb565b5f918252602090912001546001600160a01b0316036114ca57600191506114d2565b600101611469565b50806115205760405162461bcd60e51b815260206004820181905260248201527f4f6e6c792070726f6a656374206d656d626572732063616e20646f20746869736044820152606401610676565b5f88815260036020526040902060020154600160a01b900460ff1661157f5760405162461bcd60e51b815260206004820152601560248201527450726f6a656374206973206e6f742061637469766560581b6044820152606401610676565b60068660ff16106115d25760405162461bcd60e51b815260206004820152601960248201527f496e76616c696420636f6e747269627574696f6e2074797065000000000000006044820152606401610676565b5f84815260076020526040902054156116265760405162461bcd60e51b8152602060048201526016602482015275119a5b1948185b1c9958591e481cdd589b5a5d1d195960521b6044820152606401610676565b5f60088760ff166006811061163d5761163d611edb565b60208082049290920154600180545f818152600490955260409094208481559081018d9055600281018054336001600160a01b0319909116179055601f9092166101000a900460ff1692506003016116958a82611f38565b505f818152600460208190526040909120908101805460ff191660ff8b161790556005016116c38882611f38565b505f81815260046020908152604080832060068082018b9055426007830155600882018790556009909101805460ff191690558d845282528083203384529091528120805484929061171690849061207c565b90915550505f868152600760205260408120829055600180549161173983612020565b9091555050604080518281523360208201529081018390527fea7f3c98b2d3c7432438a2f4b0baa136ff77bf5c6a9171fc7814e185fcc36ec79060600160405180910390a15f8a815260066020908152604080832033808552908352928190205481518e8152928301939093528101919091527fcb1751a97077d1d2218ea8f173bcc2c061a9fb6e5681b40dee2c94679d73acc19060600160405180910390a150505050505050505050565b5f818152600560208181526040808420808401805460ff191660019081179091558154808752600480865293872091820154600283015460089093015497899052959094529181015460039091015492946001600160a01b039092169210611934575f848152600460209081526040808320600901805460ff19169055858352600682528083206001600160a01b03861684529091528120805483929061188d90849061207c565b909155505060408051868152600160208201527f5a87909bff68caaaaf0b3fd9c74eeccc928832f879315e5c6fb7a73612f26c0c910160405180910390a15f8381526006602090815260408083206001600160a01b03861680855290835292819020548151878152928301939093528101919091527fcb1751a97077d1d2218ea8f173bcc2c061a9fb6e5681b40dee2c94679d73acc19060600160405180910390a16119d1565b604080518681525f60208201527f5a87909bff68caaaaf0b3fd9c74eeccc928832f879315e5c6fb7a73612f26c0c910160405180910390a15f8381526006602090815260408083206001600160a01b03861680855290835292819020548151878152928301939093528101919091527fcb1751a97077d1d2218ea8f173bcc2c061a9fb6e5681b40dee2c94679d73acc19060600160405180910390a15b5050505050565b5f602082840312156119e8575f5ffd5b5035919050565b5f81518084528060208401602086015e5f602082860101526020601f19601f83011685010191505092915050565b848152608060208201525f611a3560808301866119ef565b6001600160a01b039490941660408301525090151560609091015292915050565b8a815289602082015260018060a01b038916604082015261014060608201525f611a8461014083018a6119ef565b60ff8916608084015282810360a0840152611a9f81896119ef565b9150508560c08301528460e0830152836101008301528215156101208301529b9a5050505050505050505050565b8681526001600160a01b038616602082015260c0604082018190525f90611af6908301876119ef565b6060830195909552506080810192909252151560a0909101529392505050565b634e487b7160e01b5f52604160045260245ffd5b604051601f8201601f1916810167ffffffffffffffff81118282101715611b5357611b53611b16565b604052919050565b5f82601f830112611b6a575f5ffd5b813567ffffffffffffffff811115611b8457611b84611b16565b611b97601f8201601f1916602001611b2a565b818152846020838601011115611bab575f5ffd5b816020850160208301375f918101602001919091529392505050565b5f5f60408385031215611bd8575f5ffd5b82359150602083013567ffffffffffffffff811115611bf5575f5ffd5b611c0185828601611b5b565b9150509250929050565b80356001600160a01b0381168114611c21575f5ffd5b919050565b5f5f60408385031215611c37575f5ffd5b82359150611c4760208401611c0b565b90509250929050565b604080825283519082018190525f9060208501906060840190835b81811015611c925783516001600160a01b0316835260209384019390920191600101611c6b565b5050838103602080860191909152855180835291810192508501905f5b81811015611ccd578251845260209384019390920191600101611caf565b50919695505050505050565b5f5f60408385031215611cea575f5ffd5b8235915060208301358015158114611d00575f5ffd5b809150509250929050565b5f5f60408385031215611d1c575f5ffd5b823567ffffffffffffffff811115611d32575f5ffd5b611d3e85828601611b5b565b925050602083013567ffffffffffffffff811115611d5a575f5ffd5b8301601f81018513611d6a575f5ffd5b803567ffffffffffffffff811115611d8457611d84611b16565b8060051b611d9460208201611b2a565b91825260208184018101929081019088841115611daf575f5ffd5b6020850194505b83851015611dd857611dc785611c0b565b825260209485019490910190611db6565b80955050505050509250929050565b5f5f5f5f5f60a08688031215611dfb575f5ffd5b85359450602086013567ffffffffffffffff811115611e18575f5ffd5b611e2488828901611b5b565b945050604086013560ff81168114611e3a575f5ffd5b9250606086013567ffffffffffffffff811115611e55575f5ffd5b611e6188828901611b5b565b95989497509295608001359392505050565b600181811c90821680611e8757607f821691505b602082108103611ea557634e487b7160e01b5f52602260045260245ffd5b50919050565b602080825260169082015275141c9bda9958dd08191bd95cc81b9bdd08195e1a5cdd60521b604082015260600190565b634e487b7160e01b5f52603260045260245ffd5b601f821115611f3357805f5260205f20601f840160051c81016020851015611f145750805b601f840160051c820191505b818110156119d1575f8155600101611f20565b505050565b815167ffffffffffffffff811115611f5257611f52611b16565b611f6681611f608454611e73565b84611eef565b6020601f821160018114611f98575f8315611f815750848201515b5f19600385901b1c1916600184901b1784556119d1565b5f84815260208120601f198516915b82811015611fc75787850151825560209485019460019092019101611fa7565b5084821015611fe457868401515f19600387901b60f8161c191681555b50505050600190811b01905550565b634e487b7160e01b5f52601160045260245ffd5b8181038181111561201a5761201a611ff3565b92915050565b5f6001820161203157612031611ff3565b5060010190565b6020808252601690820152754f6e6c792061646d696e2063616e20646f207468697360501b604082015260600190565b634e487b7160e01b5f52603160045260245ffd5b8082018082111561201a5761201a611ff3565b5f826120a957634e487b7160e01b5f52601260045260245ffd5b500490565b838152606060208201525f6120c660608301856119ef565b905060018060a01b038316604083015294935050505056fea2646970667358221220d14c0ab19feb47bb8ffa6273854bf210f2724cfcdc70cbe8f38682ed23d94d0764736f6c634300081c0033",
  "linkReferences": {},
  "deployedLinkReferences": {},
  "immutableReferences": {},
  "inputSourceName": "project/contracts/ContributionTracker.sol",
  "buildInfoId": "solc-0_8_28-283e84a08b96875529f6ecee907510fb7ebd0a99"
}